:100000000000032099010000A90A0000130E00005F
:10001000150E0000170E0000190E00000000000071
:100020000000000000000000000000001B0E0000A7
:100030001D0E0000000000001F0E0000210E000039
:10004000230E0000230E0000230E0000230E0000EC
:10005000230E0000230E0000230E0000230E0000DC
:10006000230E0000230E0000230E0000230E0000CC
:10007000230E0000230E0000230E0000230E0000BC
:10008000230E0000230E0000230E0000230E0000AC
:10009000230E0000230E0000230E0000230E00009C
:1000A000230E0000230E0000230E0000230E00008C
:1000B000230E0000230E0000230E0000230E00007C
:1000C000230E0000230E0000230E0000230E00006C
:1000D000230E0000230E0000230E0000230E00005C
:1000E000230E0000230E0000230E0000230E00004C
:1000F000230E0000230E0000230E0000230E00003C
:10010000230E0000230E0000230E0000230E00002B
:10011000230E0000230E0000230E0000230E00001B
:10012000230E0000230E0000230E0000230E00000B
:10013000230E0000230E0000230E0000230E0000FB
:10014000230E0000230E0000230E0000230E0000EB
:10015000230E0000230E0000230E0000230E0000DB
:10016000230E0000230E0000230E0000230E0000CB
:10017000230E0000230E0000230E0000230E0000BB
:10018000230E0000230E0000230E0000230E0000AB
:10019000230E0000230E00000B490C4808800C4879
:1001A00008800C490C4808800C490D4A0D4B9B1ADD
:1001B00005DD00240859105104349C42FADB0A483A
:1001C00080470A48004700000E20054020C5000077
:1001D00028D9000000200540D201000048A60000F8
:1001E0009801FF1F4C02FF1F250E0000B504000000
:10040000FFFFFFFFFFFFFFFFFFFFFFFFFEFDFFFFFF
:10041000044B05481B1A062B02D9044B03B118479D
:10042000704700BF4F02FF1F4C02FF1F000000007B
:1004300005490648091A891001EBD171491002D00B
:10044000034B03B1184770474C02FF1F4C02FF1FBC
:100450000000000010B5064C237843B9FFF7D8FF21
:10046000044B13B10448AFF300800123237010BD87
:100470004C02FF1F0000000014A6000008B5084B46
:100480001BB108480849AFF300800848036813B956
:10049000BDE80840CCE7064B002BF9D09847F7E7BA
:1004A0000000000014A600005002FF1F4C02FF1FB6
:1004B00000000000134B002B08BF114B9D46A3F515
:1004C000803A00218B460F461148124A121A03F057
:1004D0006DFA0D4B002B00D098470C4B002B00D031
:1004E00098470020002104000D000B4802F060FE38
:1004F00003F0BEF92000290000F054FC02F072FE67
:1005000000000800000003200000000000000000C0
:100510004C02FF1F6005FF1F0136000070470000FE
:10052000F0B50B4D06680F460FCD87B001AC0FC478
:100530002B68236006AA331302EB8303F1B253F84E
:10054000140C3A4607B0BDE8F04000F033BD00BFE0
:100550003891000010B5064B036003F118024C33CC
:100560000446C26303643C3001F0BAFB204610BD70
:1005700058950000A0F13C00FFF7ECBFA0F140004F
:10058000FFF7E8BF10B50446FFF7E4FF204610BDB3
:1005900010B5044602F0E2FD204610BD054B4FF4B5
:1005A000FA7140F2DC5219805A809980DA80198100
:1005B0005A8170476802FF1F401A07EE900A521ACC
:1005C000B8EEE77A07EE902AF8EEE77A82B0C7EE47
:1005D000277A9FED067A67EE877AFCEEE77ACDED13
:1005E000017ABDF8040002B0704700BF00007A44F1
:1005F0000F2838B504461BD80E48214600F092F962
:10060000B0B10D4B33F8242082424FEA840202D964
:1006100023F8240004E099184D88854238BF4880AB
:100620001A4433F824105288BDE83840FFF7C4BF9D
:10063000002038BDD002FF1F6802FF1F38B52348D5
:100640000021FFF76DFF22480121FFF769FF2148D4
:100650000121FFF765FF20484FF4FA7100F0DEF842
:100660001E484FF4FA7100F0D9F81D484FF4FA71A2
:1006700000F0D4F81B484FF4FA7100F0CFF8FFF700
:100680008DFF1948002100F0C9F86425642001F0AD
:1006900035FC0024E0B20134FFF7AAFF102CF9D199
:1006A000013DF3D109480121FFF73AFF0F4800F05F
:1006B00047F90E4800F054F90028FAD00B4800F032
:1006C00069F901460A4804F007FBEFE78403FF1FBE
:1006D0007803FF1F8003FF1F7C03FF1F7E03FF1FA4
:1006E0006003FF1F6203FF1F8803FF1F6403FF1FD8
:1006F0004C91000008B5FFF7A1FF10B50446FFF7C5
:1007000029FF204602F02AFD204610BDA0F13C0042
:10071000F3E7A0F14000F0E770B52A4C2A4D2B4ECC
:10072000204642F2100142F2110200F0CDF82A46B2
:100730002046274902F014FD2648002441F2160104
:10074000046001F04DFB244844F21A01046001F0FA
:1007500047FB224841F21501046001F041FB0221F0
:100760001F4800F04DF842F20A011E4800F048F818
:1007700042F203011C4800F043F801211B4800F03D
:100780003FF842F202011A4800F03AF82346304698
:10079000184C41F2110141F2100201F009FA2A4607
:1007A0003046154902F0DCFC204644F2190144F2BF
:1007B000180201F09FF921461048E022BDE8704080
:1007C00000F0B8B8D002FF1F9801FF1F7C02FF1F86
:1007D000850500008403FF1F7803FF1F8003FF1FB0
:1007E0008803FF1F7C03FF1F7E03FF1F6003FF1FA3
:1007F0006203FF1F7003FF1F550500006403FF1F06
:1008000010B5044600F0D0FC2046142100F0C6FCD0
:100810002046002100F09EFD204610BDB1F57A7FF4
:1008200028BF4FF47A7101F57A7100F093BD4A68E0
:100830000B6812F0010F4FEA620218BF8158104492
:1008400018BFCB581847F8B504463C3001F08EFA73
:1008500094F88C30C0B21BB90F2834D1012330E09A
:10086000182B2AD138BB94F88B3084F8743004F1FB
:1008700052070025C0F3C70600F007032946A21956
:1008800092F875201A410133DBB2072B02F0010206
:1008900002FA05F288BF013605F1010541EA0201BD
:1008A00084BFF6B200230B2D89B2E8D10B30B028FB
:1008B00027F8021FDDD1002303E0E218013382F89C
:1008C000740084F88C30F8BD0B4610B51146044610
:1008D0001A46002301F06CF920460F4901F0AEF9E9
:1008E000022220460821134601F0B0F94CB10B4B0F
:1008F000E36000210A4BA4602161E361201D012215
:1009000002E004202146224600F03CFF002384F848
:100910008C30204610BD00BFA086010047080000B3
:100920002F0800000F299ABF00EB4100B0F85400D7
:100930000020704710B5044600F047F8204610BD6F
:100940001FB5002351228DF80C308DF80D20017A4F
:10095000009303AA022301F0EBF805B05DF804FB55
:1009600030B585B004AA0446002502F8085D017A76
:100970000095012301F0DCF8217A0095204603AAB6
:10098000012301F0EFF89DF80C00FF3818BF01209B
:1009900005B030BD7FB504AA04460225002602F842
:1009A000085D017A0096012301F0C2F82B46217AF6
:1009B0000096204603AA01F0D5F89DF80C009DF89A
:1009C0000D3043EA002004B070BD034603C91A721B
:1009D00083E803001846704770B586B072B641F2DE
:1009E0001601684601F0FCF928E01D4D0FCD01AC61
:1009F0000FC432132B68236006A901EB8203F1B206
:100A000053F8140C012200F0D5FA962001F076FA82
:100A1000009E731C1CD0124D0FCD01AC0FC42B686F
:100A20002360321306A901EB8203F1B253F8140CD0
:100A3000002200F0BFFA962001F060FA009E721CBE
:100A4000D3D108480849202201F09AF9009ECCE74A
:100A500004480549202201F093F9009EDBE700BF1E
:100A6000589100006C910000849100000B4A30B452
:100A7000936894681A465CB9094A03F5CC7553F833
:100A8000044B42F8044FAB42F9D1044B054A9A603B
:100A9000103030BC42F82010704700BF00ED00E07D
:100AA000FCFFFE1F0000FF1F00B583B001A804215A
:100AB00001F084F903B05DF804FB00BF036870B572
:100AC0001B690021012204469847431C05460ED0AD
:100AD000236820461B6900210222984723680646A6
:100AE00029461B69204600229847304670BD70BDDC
:100AF000084B094A026010B403F58071002453F8D2
:100B0000042B824208BF43F8044C8B42F7D15DF8B6
:100B1000044B70478C03FF1F189200000A4B0B4ACE
:100B200010B503F5807104460260002053F8042BD1
:100B3000944208BF43F8040C8B42F7D1204602F0E0
:100B40000DFB204610BD00BF8C03FF1F1892000054
:100B5000034841F2110141F2100200F0E3BC00BF72
:100B60005805FF1FF0B50E4685B03549054604F01F
:100B70005EFB20B9334B1B6863B105B0F0BD28465E
:100B8000314904F054FB78B92E4B1B6843B1012066
:100B900005B0F0BD0190FFF7DBFF019805B0F0BD97
:100BA000FFF7D6FF0120E8E72846284904F03FFB7D
:100BB00010B3274B002402E00134402C21D053F81D
:100BC000040F0028F8D12B783A2B32D0294602A8FE
:100BD00000F038FF02A800F087FF90B102A800F0F3
:100BE0006BFF88B102A800F071FF03464BB1194AB0
:100BF000E01C42F82430C0E7124B1B68ABB1022066
:100C0000BBE74FF0FF30B8E702A800F049FF054608
:100C10000028F6D0036802A89F6800F03FFF324624
:100C200001462846B8470346E0E7FFF791FF022058
:100C3000A3E72846084902AA04F08AFA029BD5E7EE
:100C4000F49100009004FF1F04920000FC9100004A
:100C50008803FF1F8C03FF1F40920000022808B585
:100C60000BDDC21E074B53F82200002143F822106F
:100C700028B103685B68984708BD002008BD4FF0A5
:100C8000FF3008BD8C03FF1F022870B50C461646C6
:100C90000FDC0E4B1B680BB9FFF75AFFA51936B1D5
:100CA00014F8011B0A4800F0ADFEAC42F8D1304602
:100CB00070BD0338074B53F8200018B103681B6858
:100CC000984770BD4FF0FF3070BD00BF9004FF1F0C
:100CD0005805FF1F8C03FF1F022810B50C4609DCC6
:100CE0000D4B1B688BB10D4800F03CFE01232070BA
:100CF000184610BD03380A4B53F8200040B1036872
:100D00009B6898470346184610BDFFF721FFEAE7A6
:100D10004FF0FF33ECE700BF9004FF1F5805FF1FA3
:100D20008C03FF1F022808B508DD0338064B53F873
:100D3000200028B10368DB68984708BD012008BD82
:100D40004FF0FF3008BD00BF8C03FF1F022808B51D
:100D500008DD0338064B53F8200028B103681B69EF
:100D6000984708BD002008BD4FF0FF3008BD00BF08
:100D70008C03FF1F022808B504D84FF400534B60C2
:100D8000002008BD02F028FA092303604FF0FF306D
:100D900008BD00BF08B5012002F024FA704700BF6B
:100DA000704700BF08B5FFF7FBFFFFF7F7FFBDE88F
:100DB0000840FFF79FBC00BF074A13681844EFF3D1
:100DC0000881884202D2106018467047034B0C22FB
:100DD0001A604FF0FF3070479C01FF1F5C05FF1F3A
:100DE000074C08B523680546986802F017FB23688E
:100DF000D86802F013FB05B9FEE7FFF7EDFDFBE74E
:100E00000002FF1F002104F0A7B800BF02F044BB9E
:100E1000FEE7FEE7FEE7FEE7FEE7FEE7FEE7FEE7AA
:100E2000FEE7FEE74A4A4B4B4B49F0B4D2F88860E4
:100E30004CF2205546F470064DF628144FF4E97034
:100E4000C2F88860DD81DC8118800B78DE075FD511
:100E5000424B9A78150775D4414B424E4249434A5A
:100E6000434D41F244004FF08A742A2737701C50DA
:100E70001C6824F4402441F2040044F400241C6063
:100E80001C5824F4403444F480341C5041F238049B
:100E900000201E5946F400761E518B6C23F080739F
:100EA00023F4E0638B641072517801F09F0141F0EC
:100EB00020018024BA2351702C70114610731370D6
:100EC0008B792A4AD806FBD4D0781823132100F056
:100ED0001F00D07011715371537943F04003537167
:100EE000937922495B06FBD50B7803F03F030B7027
:100EF0008B7903F00C030C2BFAD1194A41F2480309
:100F0000F0BCD15821F00F0141F00901D1507047D8
:100F100041F23C021249174B885840F0005088506B
:100F20001A69D40598D41A6922F47C5242F44072AA
:100F30001A611A6942F480721A611A6922F4007205
:100F40001A6189E79A7842F008029A7084E700BF34
:100F500000ED00E00020054000F0074000D0074011
:100F60000070044000E0074000900440004006404C
:100F70000050064000D003401F2908B50ED8012AB2
:100F800007D04369012202FA01F123EA010141611C
:100F900008BD43698A401A43426108BD0248034ABA
:100FA000034B2C2102F0E8F850920000EC92000074
:100FB000E09200001F2908B507D8012303FA01F1C8
:100FC0000AB9816008BD416008BD0348034A044B6B
:100FD000402102F0D1F800BF5092000000930000C1
:100FE000E092000008B50348034A044B4FF4F57142
:100FF00002F0C2F8289300006C940000BC9300003B
:1010000070B507EE901A0488F5EEC07AF1EE10FA8A
:1010100084B04FEA142537D4B7EE007AF4EE477A5D
:10102000F1EE10FAC8BFF0EE477A1A4B0FCB04AEC0
:1010300006E90F0006EB850504F00F0455F8103C97
:1010400099681A6889B206EE901AB8EE667A22F0AC
:10105000180267EE277A072CFCEEE77A1A6017EE83
:10106000902A14D803F1100101EBC40492B222605B
:101070005A68120C12045A601A6822F0180242F0E0
:1010800008021A6004B070BDDFED037ACDE7FFF708
:10109000A9FF00BF189300000000000030B51D4BF1
:1010A00004460FCB85B004AD248805E90F00230A60
:1010B00005EB830304F00F04072C53F8103C22D8EF
:1010C00003F1100202EBC40422689B689BB292B247
:1010D000B3B107EE102AF8EE477A07EE103AF8EEB1
:1010E000476AB7EE007AC7EEA67AF4EEC77AF1EE59
:1010F00010FAD4BF17EE900A17EE100A05B030BDF3
:10110000002005B030BD0448044A054B40F2F711F9
:1011100002F032F818930000289300008494000035
:10112000BC930000F0B51B4B05460E460FCB85B0B7
:101130002C8804AF07E90F002846FFF7AFFF240A09
:1011400004AB06EE906A03EB8404134B54F8104C86
:10115000D3ED007A2368B8EEE67A23F0180367EE41
:10116000277A2360FCEEE77AA36817EE901A1B0C2F
:10117000013989B21B0402460B43A360284611467D
:10118000FFF73EFF236823F0180343F008032360B2
:1011900005B0F0BD189300008C04FF1F4FF47A7364
:1011A00003FB01F1FFF7BEBF2DE9F0470E468AB001
:1011B00080466049304600F07BFE4FF6FF7384B2F4
:1011C0009C42074600F0AA80A8F80040032001A92D
:1011D00000F09AFE9DED017ADFED577AF8EE476A4E
:1011E000B7EE007AC6EEA77AF4EEC77AF1EE10FAFF
:1011F00040F39A80F6EE006A67EEA67A0123F4EED9
:10120000C77AF1EE10FA40F386800133072B67EEC0
:10121000A67AF4D19946494DDFF830C1DFF830E1C4
:1012200095E80F004FEA142A02AC84E80F005146FB
:10123000DCF80000CEED007A01F0BEF90AAA02EB5C
:101240008A0A40465AF8204CD4F8843023F01F0311
:1012500043F00303C4F88430236823F0180343F0F9
:1012600008032360236823F0070349EA030323608C
:1012700063681B0C1B04636044F62061FFF752FF98
:1012800095E80F0006AD85E80F00B8F800E09FED87
:101290002C7A4FEA1E230AAA02EB83030EF00F0EEC
:1012A00053F8103C9A68196892B207EE902AF8EE4B
:1012B000677A21F0180167EE877ABEF1070FFCEE1E
:1012C000E77A196007F00F0217EE901A2FD803F192
:1012D000100000EBCE0E89B2CEF800105968090C50
:1012E000090459601F6827F0180747F008071F60B6
:1012F0002046002329460224069307930893099366
:101300008DF8184000F086FE30460A4900F09EFD38
:101310000AB0BDE8F0875FFA83F97CE709480A491B
:10132000202200F02DFD4FE74FF0000973E7FFF793
:1013300059FE00BFB49A00000024744918930000BD
:1013400000000000E4930000F8930000AC96000059
:101350008C04FF1F30B5134B134D044607EE901A53
:101360000FCB85B095ED007A248804ADF8EEE77ACE
:1013700005E90F0067EE877A230A05EB830304F083
:101380000F04FCEEE77A072C53F8102C17EE903A76
:1013900006D8103202EBC4049BB2236005B030BD06
:1013A000FFF720FE189300008C04FF1F38B5144A85
:1013B000144B154C127820681B78D2B2DDB208B1FC
:1013C000BAB92DB91148032101F046F858B938BD12
:1013D0000F4B20681B68002198470C48032101F03F
:1013E0003BF80028F3D009480321BDE8384001F05C
:1013F00055B8074B01211B689847002DE2D0E7E75D
:101400009C00D4429400D4429404FF1F00A00640E4
:10141000A804FF1F38B50C4A0C4B0D4C1278A0687D
:101420001B78D2B2DDB208B13AB905B938BD094B63
:10143000A0681B680021984738BD064B01211B6836
:101440009847002DF2D0F2E79C00D8429400D84291
:101450009404FF1FA804FF1F38B50C4A0C4B0D4C19
:10146000127860681B78D2B2DDB208B13AB905B91A
:1014700038BD094B60681B680021984738BD064B92
:1014800001211B689847002DF2D0F2E79C00D6425C
:101490009400D6429404FF1FA804FF1F38B50C4ADD
:1014A0000C4B0D4C127820691B78D2B2DDB208B11A
:1014B0003AB905B938BD094B20691B680021984726
:1014C00038BD064B01211B689847002DF2D0F2E78A
:1014D0009C00D4439400D4439404FF1FA804FF1F2E
:1014E00038B50C4A0C4B0D4C1278E0681B78D2B220
:1014F000DDB208B13AB905B938BD094BE0681B68DF
:101500000021984738BD064B01211B689847002DE4
:10151000F2D0F2E79C00DA429400DA429404FF1F12
:10152000A804FF1F2DE9F047044686B00846894607
:101530005849904600F0BCFC57490546404600F02B
:10154000B7FC0146284600F0A1FC431C206000F0D7
:101550009A8000F0EBFF514B514E2168824618688B
:1015600001F072F80FCE6D460FC596E803002768AC
:1015700085E8030006A800EB870706AD57F8180CAE
:1015800000F024FF236806AA02EB8303514653F8B8
:10159000180C4FF4165200F033FF23683D4905EB59
:1015A0008302002352F8182C9078C0B29070226801
:1015B00005EB8202484652F8182C02F104725201DF
:1015C0001375226805EB820252F8182C02F104729E
:1015D000023252011374226805EB820252F8182C71
:1015E00002F10472033252011373226805EB820286
:1015F00052F8182C02F1047203325201137200F0F7
:1016000025FC4046244900F021FCB9F1FF3F17D0EA
:10161000236806A800EB830353F8180C00F078FF4A
:10162000236806AA02EB8303012253F8183C03F156
:10163000047303335B0148461A73022101F058FB1F
:10164000B8F1FF3F0FD0236806AD05EB83030122FD
:1016500053F8183C03F1047303335B0140461A72DC
:10166000022101F045FB236813B106B0BDE8F08705
:101670000C4B0D482146042201241C6006B0BDE835
:10168000F04702F088B909480949342200F078FB94
:1016900020685EE7F49C0000249A0000AC960000ED
:1016A0009C9400009004FF1F5805FF1FB494000095
:1016B000CC940000F0B50E4D07460E460FCD87B016
:1016C0006C460FC495E803003B6884E8030006A954
:1016D00001EB8302184652F8184C00F027FF3246FF
:1016E0000146204607B0BDE8F04000F089BE00BFCB
:1016F0009C9400002DE9F0011A4D064688461746D5
:101700009C460FCD87B06C460FC495E80300356842
:1017100084E8030006AA02EB85055FFA88F855F80D
:10172000180C00F10470023040010CF1FF3C80F80D
:101730001080316802EB81015FFA8CFC51F8181CB3
:101740008B781F438F70336802EB830353F8183C88
:1017500003F104735B0183F814C007B0BDE8F00126
:10176000704700BF9C94000010B4044B0468044808
:10177000196040F824205DF8044B7047A804FF1F4F
:101780009404FF1F2DE9F047066886B084460F4693
:101790009146042E00F2A480DFE806F033383D4283
:1017A0000300DFF84CA14FF042084F4D0FCD6C46BF
:1017B0000FC495E8030084E80300B9F1000F34D0AA
:1017C000002F00F08180012F09D106AA02EB8606C6
:1017D00056F8183C03F1047303335B011F774FFA8B
:1017E00088F420465146FFF741F9640908F01F08C4
:1017F00001223E4B02FA08F243F8242006B0BDE86D
:10180000F087DFF8F0A04FF01F08CEE7DFF8E8A080
:101810004FF02108C9E7DFF8E4A04FF02308C4E740
:10182000DFF8DCA04FF02508BFE7002F14BF00232E
:1018300001233CD0012F0CD106AA02EB860656F8F4
:10184000182C02F104720332520182F81C90DCF869
:101850000060EBB106AA02EB860656F8183C03F1CD
:10186000047303335B011B7FD3F1010338BF0023F3
:10187000002BC3D04FEA5812203208F01F081B4B30
:10188000012101FA08F143F8221006B0BDE8F08703
:1018900006AB03EB860656F8183C03F104730333DA
:1018A0005B011B7DD3F1010338BF0023E0E706AAEB
:1018B00002EB860656F8182C02F10472033252012C
:1018C0001775DCF80060C4E706AB03EB860601225F
:1018D00056F8183C03F1047303335B011A757EE775
:1018E0004FF0000AD04660E79C94000000E100E061
:1018F0009D140000AD1300005914000015140000E1
:10190000E114000070B5164D06460FCD86B06C464A
:101910000FC495E80300336884E8030006AA02EBCD
:101920008303032153F8180C00F096FD40B133688F
:1019300006AA02EB8303032153F8180C00F0AEFD56
:10194000336806AA02EB830353F8183C03F10473CF
:1019500004335B01187D003018BF012006B070BD54
:101960009C94000070B5044688B02046FFF7CAFF7B
:101970000028FAD00A4D26680FCD02AC0FC495E8B6
:10198000030008AB84E8030003EB86060DF10701B2
:1019900056F8180C00F05CFD9DF8070008B070BD0B
:1019A0009C94000070B5164D06460FCD86B06C466F
:1019B0000FC495E80300336884E8030006AA02EB2D
:1019C0008303032153F8180C00F046FD40B133683F
:1019D00006AA02EB8303032153F8180C00F05EFD06
:1019E000336806AA02EB830353F8183C03F104732F
:1019F00004335B01187F003018BF012006B070BDB2
:101A00009C940000F0B5044687B00E462046FFF7D0
:101A1000C9FF0028FAD00A4D27680FCD6C460FC4C5
:101A200095E8030006AB84E8030003EB8707F1B2F7
:101A300057F8180C07B0BDE8F04000F005BD00BF36
:101A40009C94000038B50023036043600A782F2A75
:101A5000044601D0204638BD4A78002AFAD0481CF6
:101A600020604A782F2A14D0B2B18D1C194600E0AC
:101A700052B125602A782F2A2B4601F1010105F188
:101A80000105F5D10133236001F066FA606020465C
:101A900038BD19460346F5E71146F5E7006870477B
:101AA00010B50446406828B101F074FA012801D14C
:101AB000606810BD002010BD406808B528B101F075
:101AC00069FAD0F1010038BF002008BD10B5044606
:101AD000406830B101F05EFA18B9606808B10438A6
:101AE00010BD002010BD00BF4068003018BF0120AD
:101AF000704700BF38B5054D002380E82800044634
:101B000000F072FF024B20461C6038BDA086010029
:101B1000AC04FF1F38B5054D2B688342044603D043
:101B2000416800F03BFF2C6038BD00BFAC04FF1FD4
:101B30002DE9F04182B01C469DF820500F46164614
:101B4000804685F00105FFF7E5FF009540463946E0
:101B50003246234601F040F8201A18BF012002B097
:101B6000BDE8F0812DE9F04182B01C469DF820507F
:101B70000F461646804685F00105FFF7CBFF00951E
:101B8000404639463246234600F0BCFF201A18BFB3
:101B9000012002B0BDE8F08100F05CB8A0F13C008B
:101BA000FFF7FABF00F05AB8A0F13C00FFF7FABF08
:101BB00038B504461D4600F025F8294604F13C00DE
:101BC00000F0B2F8054B03F1080103F12002543391
:101BD0002160E2632364204638BD00BF50950000B9
:101BE00001EB410108B5CB000833C1184A6922B1A5
:101BF000C05808B10431904708BDC358002BFBD032
:101C0000984708BD38B504460A4B0360251D0023DC
:101C10004FF41650A06363602846A360E36123621B
:101C20006363FFF77FFC284622460349FFF79CFDCC
:101C3000204638BD48950000E11B000038B5044639
:101C40000D460430FFF736FDA56338BD0430FFF7BD
:101C500051BD00BF0430FFF785BE00BF10B5043092
:101C60000C46FFF7CFFE204610BD00BF0020704796
:101C7000F8B58E18B1420F4605460FD00C4601E06C
:101C8000A64209D02B6814F8011B5B6A28469847C6
:101C90000130F5D1E01BF8BDF01BF8BD0020F8BD08
:101CA000F8B58E18B1420F4605460FD00C4603E03A
:101CB00004F8010BA64207D02B6828469B6A984778
:101CC000431CF5D1E01BF8BDF01BF8BD0020F8BDAA
:101CD00000207047002070470020704700207047A8
:101CE00010B5074B03F108023C33044680E80C00B2
:101CF000406901F0DDFA204601F04EF9204610BDA2
:101D0000B0950000A0F10400FFF7EABF10B504464B
:101D1000FFF7E6FF204601F021FA204610BD00BF84
:101D2000A0F10400FFF7F2BF10B584B0044601F043
:101D300063F90B4B0B4903F1080000223C3384E8A4
:101D40000900626101A8224603F0DEF9064901A8F4
:101D500001F0AAFC6061FFF755F8204604B010BD01
:101D6000B095000040920000F895000010B50446C0
:101D7000406901F053FB6069BDE81040FFF746B8C9
:101D800010B40C4613460146224602485DF8044B47
:101D900000F002B8FC9500000FB400B5064B83B00C
:101DA00004AA1B6852F8041BD868019201F0D0FF06
:101DB000012001F017FA00BF0002FF1F38B50D46E1
:101DC000044600F071FC013509D02046002100F0E6
:101DD000A7FC20460221BDE8384000F09DBC38BD7C
:101DE000F0B50C4687B0064600F05EFC01341DD00D
:101DF00037687B1C1CD0124D0FCD01AC0FC42B6873
:101E000023603A1306A901EB8203F9B253F8140CCC
:101E10000022FFF7CFF83046012100F081FC304668
:101E2000002107B0BDE8F04000F076BC07B0F0BD7F
:101E3000044805492022FFF7A3FF3768DBE700BF0E
:101E4000309600006C91000084910000431C10B596
:101E5000044618D00B68581C04D10FE051F80C3F11
:101E60005A1C0BD09C42F9D12046896800F0F8FE3C
:101E700020460021BDE8104000F03ABF0248BDE80E
:101E80001040FFF789BF10BD44960000884208B596
:101E90000AD0431C07D0013106D00448FFF77CFF6D
:101EA0004FF0FF3008BD084608BD00BF589600003F
:101EB00008B5431C0CD00B685A1C04D109E051F83A
:101EC0000C3F5A1C05D09842F9D14868411C00D0FB
:101ED00008BD0348FFF760FF4FF0FF30F8E700BF91
:101EE0006C96000038B5054600F0B6FF044600F0D9
:101EF000B3FF001BA842FAD338BD00BF4FF47A737A
:101F000003FB00F0FFF7EEBF10B50C4617284AD8C8
:101F1000DFE800F0393939393939103D4941104588
:101F2000161B2127492D330C0C0C0C0C00230B60C5
:101F3000184610BD4FF400430B600023184610BD37
:101F40004FF47A730B600023F2E7194800F0FAF8B7
:101F500000232060ECE7164800F028F900232060F9
:101F6000E6E7134800F06AF900232060E0E7104834
:101F700000F096F900232060DAE70D4800F07EF9C2
:101F800000232060D4E7BDE8104000F017B8094BEB
:101F90000B600023CCE7084B0B600023C8E701234C
:101FA0000B600023C4E74DF603130B600123BFE76A
:101FB0000040064080F0FA02006CDC0230B500EB15
:101FC0004000114BC25C83B0C4180D4662B160780A
:101FD000FFF79AFFA8B9A1780C4801AA00F09AF976
:101FE00038B1042003B030BD094800F059F9286029
:101FF000F1E7019A2B680132B3FBF2F32B6003B0D7
:1020000030BD012003B030BD849D0000007004404D
:1020100000400640072A70B500F28180012A436E15
:102020003DD9941E012C6CD9141F012C8CBF6FF06C
:1020300080646FF480242340436600F104744D787B
:10204000097804F10C0303EBC203002D4FEA43139C
:102050000CBF002601260CBF0125002503299E6028
:10206000DD6035D0042907D002291BD02F48304A23
:10207000304B3C2101F080F8640100236361012AA8
:10208000436E4AD9911E01293ED9043A012A8CBFD8
:102090004FF080724FF480321343436670BD6FF08F
:1020A0000404C8E7012A416E28D9951E012D2ED9B6
:1020B000043A012A94BF6FF480356FF080750D40AB
:1020C000640145660022012162611A61596170BD97
:1020D000012A436E0FD9911E01291BD9043A012A06
:1020E0008CBF6FF080726FF480321A40640101235C
:1020F0004266636170BD6FF00102F6E76FF00105A3
:10210000DDE76FF4806496E74FF48072C4E76FF404
:102110008075D4E76FF48072E7E70122BCE70648D8
:10212000064A074B4FF4507101F026F87C970000E7
:10213000D096000010980000E8960000B0960000CD
:10214000BC93000010B400F1047252010346127AED
:1021500022B14FF400405DF8044B7047027B12F04F
:10216000030219D0012A19D00E4C022A18BF0024EC
:1021700019785A78C1F3C2010120884012F0300F5B
:10218000B4FBF0F0E7D01B7B03F00303012BE2D09C
:1021900040095DF8044B7047034CE9E74FF40044F5
:1021A000E6E700BF006CDC0280F0FA0210B50446DE
:1021B000FFF7C8FF04F1047303335B011A7FE37870
:1021C000C3F34113D2B2032B07D8DFE803F0130F98
:1021D0000B0740F6713303FB00F010BDD2B1012AAA
:1021E000F7D010BD92B1012A1DD010BD52B1012A05
:1021F00014D010BD12B1012A1AD010BD00EB80001E
:10220000C00110BD00EB8000000210BDC0EB00104B
:10221000C00110BD00EB8000400210BD4FF4B76359
:1022200003FB00F010BD40F6950303FB00F010BD6A
:102230004FF4377303FB00F010BD00BF037B13F0B6
:10224000030312D0012B12D00A4A022B18BF00221E
:102250000379407903F01F03013300F01F00B2FB44
:10226000F3F3183000FB03F07047034AF0E74FF434
:102270000042EDE7006CDC0280F0FA0200F104732A
:1022800001335B011B7833B1007A044BC0F3420089
:1022900023FA00F070474FF40040704700093D00FA
:1022A0000278920907D100F1047305335B011B7EAC
:1022B0005BB9FFF77BBF02789209012A07D0027849
:1022C0009209022A10D000207047FFF7B7BF00F133
:1022D00004720132520112788AB1007A0A4BC0F3BB
:1022E000420023FA00F07047037B13F0030309D088
:1022F000012B04D00548022B18BF002070474FF473
:10230000004070470248704700093D00006CDC0245
:1023100080F0FA020E2908B548D8002313600E2970
:1023200042D8DFE801F00D151E2730384141414108
:10233000414141410800012313600023184608BDB4
:1023400041F2440100234158090F1160184608BDAD
:1023500041F2440100234158C1F303611160184662
:1023600008BD41F2440100234158C1F303511160FB
:10237000184608BD41F2440100234158C1F303410E
:102380001160184608BD0D4B03445901002309682C
:102390001160184608BD41F2480100234158C1F3BD
:1023A00042011160184608BD0423C7E70448054AE6
:1023B000054B40F2B71100F0DFFE00BF48101002DD
:1023C0003C980000AC990000E898000010B400238D
:1023D0000424C0210122037044708370C3704371D0
:1023E0008371C37103724372837243738373037483
:1023F00043748174C37442755DF8044B704700BF29
:10240000120170B4B1FBF2F4A3B25E1EB6B241F693
:10241000FE75AE4214D8057805F0E00545EA1323B1
:10242000E4B203704470837A4901B1FBF2F202F026
:102430001F0203F0E0031A43827270BC0020704751
:10244000012070BC704700BF0379C171704700BFA5
:102450000379C3790B7070470B0A032B1BD8DFE895
:1024600003F0140E0802807CC9B2084100F001009C
:102470007047007BC9B2084100F001007047407905
:10248000C9B2084100F0010070470079C9B20841A3
:1024900000F0010070470020704700BF042919D0E8
:1024A00013D940F2071399422BD0B1F5847F1FD383
:1024B000B1F5407F16D040F20133994210D1837CB0
:1024C00043F00203837400207047012902D001D336
:1024D000022903D10379C379002070470329F9D079
:1024E00003207047837C43F001038374002070470E
:1024F000B1F5837FF4D1437943F040034371002069
:102500007047437943F0800343710020704700BF58
:1025100000F1047003304201137B03F0FF000BB1A4
:1025200004207047012382F8DC31704700B583B086
:1025300000230193052814D8DFE800F00B0B0303F8
:102540000303032001A9FFF7DFFC019803B05DF846
:1025500004FB01A90120FFF7D7FC019803B05DF847
:1025600004FB0020F2E700BF042909D8DFE801F0EE
:10257000090F151B03000F4B03445B0101225A6333
:1025800070470C4B03445B0101225A627047094BB0
:1025900003445B0101229A627047064B03445B01CE
:1025A0000122DA627047034B03445B0101221A6384
:1025B000704700BF38101002032908D8DFE801F087
:1025C000140E08020B4B03445B0101225A6670474C
:1025D000094B03445B0101229A667047064B034492
:1025E0005B0101225A667047044B03445B010122E0
:1025F0001A607047301010023C1010023F10100299
:10260000024B03445B010122DA6570473C10100263
:1026100001290FD008D3022905D1094B03445B01DE
:1026200001229A6170477047064B03445B01012207
:102630009A617047034B03445B01D961704700BF47
:102640002810100234101002052909D8DFE801F023
:10265000090F151B2103124B03445B010122DA62AF
:102660007047104B03445B0101229A6270470D4B87
:1026700003445B010122DA6270470A4B03445B01A9
:1026800001221A637047074B03445B0101225A631E
:102690007047034B03445B0101229A62704700BFFD
:1026A0002810100234101002F0B54B1C87B00C46F5
:1026B000016001D107B0F0BD124EDFF858E00FCE37
:1026C00001AD0FC527133368DEF800002B603946D3
:1026D000FFF74AFF06ABE4B203EB87071F2C57F85E
:1026E000143C09D853F8242022F4E06242F48072AA
:1026F00043F8242007B0F0BD0348044A044BE72107
:1027000000F03AFD989D0000449E0000E09E00000D
:10271000D49E0000AC960000006800F0E9BA00BF4B
:10272000F0B50668731C87B004460F4617D00F4DEE
:102730000FCD01AC0FC42B682360F1B233130FB17E
:10274000012F0AD106AA02EB83033A4653F8140C70
:1027500007B0BDE8F040FEF70FBC07B0F0BD04487D
:1027600004493122FFF70CFB2668E0E7AC9D00002E
:102770006C910000D49D000070B40F4A0F4B0546C9
:102780000C4607CA85B004AE06E907002D6806EBC3
:102790008505012155F80C0CA140033001E0013BF7
:1027A00006D002781142FAD0002005B070BC704704
:1027B000012005B070BC7047F49E0000A0860100A7
:1027C00070B51B4B05460E4693E8070086B08DE8B2
:1027D00007002C6806AB03EB8404F6B254F8183CEF
:1027E00006AC04E907001E7128460121FFF7C4FF6B
:1027F00010B1022006B070BD2B6806AA02EB83035D
:10280000012253F80C3C03F1047303335B012846A7
:102810001A710721FFF7B0FF0028EAD12B6806AC38
:1028200004EB830353F80C3CD87800F00100E1E797
:10283000F49E000030B5012185B00446FFF79CFFEF
:10284000034690B90B4A246807CA04AD05E907009E
:1028500005EB8404012154F80C2C02F104720332BC
:1028600052011846117105B030BD0123184605B05C
:1028700030BD00BFF49E000070B4174C03460E46F6
:10288000154694E8070085B004AC04E907001A680F
:10289000B5B904A901EB820252F80C2C02F10472C2
:1028A0000232520115731A6804AC04EB8202184616
:1028B00052F80C3C1B79337005B070BCFFF7BABFFF
:1028C00004EB8202012152F80C2C02F10472023254
:1028D00052011173E7E700BFF49E000008B50348FA
:1028E000034A044BC52100F047FC00BF449E000092
:1028F000149F0000D49E000010B5094B044693E8D5
:10290000070084B0236804AC04E9070004EB8303E8
:1029100053F80C0C00F0F0FB002004B010BD00BF19
:10292000F49E000010B5194B044693E8070084B0EC
:10293000236804AC04E9070004EB8303002153F887
:102940000C2C009102F1047302335B01197D71B903
:1029500000230093009BC72B06D800BF009B0133C8
:102960000093009BC72BF8D9002004B010BD1B7D3D
:10297000012B04D1937803F0CF039370E8E7044868
:10298000044A054B4FF4997100F0F6FBF49E0000E9
:10299000309F0000A0A00000BC9F000030B5104B8D
:1029A00005460C4693E8070085B004AB03E9070031
:1029B00003206946FFF7A8FA034670B92868094A58
:1029C000009904AD05EB800082FB0452E41750F837
:1029D0000C0CC4EBA21200F039FB05B030BD00BFF7
:1029E000F49E0000D34D62102DE9F041044688B0FA
:1029F00008460E463C491746FFF75AFA3B4905463A
:102A00003846FFF755FA01462846FFF73FFA431CC0
:102A1000014620605ED0364B364D1868FFF7F8FD52
:102A200095E8070023688DE8070008A901EB8303F8
:102A30004FF0010853F8200C00F0F8FA23682E49F3
:102A400008AA02EB8303204653F8203C03F10473E9
:102A500002335B010C3583F81C80236802EB83038F
:102A600003AC53F8203C03F1047302335B0183F899
:102A70001880FFF793FF30461B49FFF7E7F9384608
:102A80001A49FFF7E3F90FCD0FC432132B68236007
:102A900008A901EB8203F6B21F2E53F8143C20D88C
:102AA00003F1047303EB86063A1308AB760103EBDC
:102AB0008202FFB21F2FC6F8148052F8143C10D8BF
:102AC00003F1047303EB87077F01C7F8148008B094
:102AD000BDE8F08109490A482122FFF751F9216830
:102AE00099E7FFF7FBFE00BFC4990000889C000037
:102AF000AC960000F49E0000A0860100F89F000044
:102B0000DC9F00002DE9F04385B00C4691461E463F
:102B10000546FFF7F1FE00284CD144F0010128469C
:102B2000FFF74EFE044600284AD12A4B2F6893E84F
:102B3000070004AB03E9070003EB8707002E57F8F3
:102B40000C3C03F1047303F102034FEA43131C74BA
:102B50001BDD0DF10301771E09F1FF3806E001349A
:102B6000B44214D0002C31D008EB0401E31B5A42CC
:102B70005A412846FFF780FE0028F0D02846FFF78C
:102B8000D1FE204605B0BDE8F0834FF0FF370C9A28
:102B900062B92B6804AA02EB8303304653F80C3C5D
:102BA0001B7909F8073005B0BDE8F0832846FFF728
:102BB000B9FEEEE72846FFF7B5FE6FF00100E1E74A
:102BC0002846FFF7AFFE4FF0FF30DBE70DF10301C2
:102BD000CCE700BFF49E0000F8B50C4617461E4631
:102BE0000546FFF789FE08BB04F0FE012846FFF703
:102BF000E7FD08BB002EC8BF044603DC0DE001342E
:102C0000B4420AD02846395DFFF7DAFD0028F6D035
:102C10002846FFF787FE2046F8BD069B0BB93046D5
:102C2000F8BD2846FFF77EFE3046F8BD2846FFF780
:102C300079FE6FF00100F8BD2846FFF773FE4FF0F4
:102C4000FF30F8BD08B50348034A044B8D2100F05E
:102C500093FA00BF449E0000DCA00000D49E000058
:102C60002DE9F041431C86B00646884621D0194B19
:102C7000194D071339461868FFF776FC0FCD01ACE4
:102C80000FC406AB03EB8707F6B22B6823601F2E39
:102C900057F8143C17D853F826104FEA082221F4AD
:102CA000E06102F4E0620A4343F8262006B0BDE882
:102CB000F0810A480A491722FFF762F8054B3146AE
:102CC0001868FFF751FC0748074A084BE72100F056
:102CD00053FA00BFAC960000B4A00000C09D0000F5
:102CE000F0A00000449E0000C8A00000D49E000098
:102CF000F0B5431C87B006460F4640D0244D0FCD9B
:102D000001AC0FC4012F2B6823604FEA2633F6B2C3
:102D100024D012D3022F0ED106AA02EB83031F2E5A
:102D200053F8143C31D803EB860606F1047676019D
:102D300001237360336007B0F0BD06AA02EB830382
:102D40001F2E53F8143C20D803EB860606F10476B8
:102D5000760100237360336007B0F0BD06AA02EB72
:102D600083031F2E53F8143C0FD803EB860606F19D
:102D70000476760100237760336007B0F0BD054824
:102D800005491E22FEF7FCFFB8E7FFF75BFF00BF17
:102D9000B4A00000C09D0000F0A000002DE9F047A5
:102DA000204B1C6882B014B102B0BDE8F0871E4A07
:102DB0001E4E1068DFF894801D4F012521461D60CE
:102DC000FFF71EFC1B4B01A91C600320FFF79CF8BA
:102DD000019A194BDFF878C0DFF878E01748184CF3
:102DE0001849A3FB02A94FEA994909F1FF394FF0AD
:102DF000FF32C8F80090CCF80020CEF800503D60BB
:102E00003560019AA3FB02639B0C013B03603320F6
:102E10002560FDF72BFE0C4B4FF400225A6002B0E8
:102E2000BDE8F087B004FF1FAC96000000236E429F
:102E300000216E4204006E4283DE1B43207103407A
:102E400008276E422130000000E100E000710340DD
:102E50001071034008236E4208B5044B1B680BB980
:102E6000FFF79CFF024B1868C04308BDB004FF1F6A
:102E700014710340014B00221A60704704276E4210
:102E8000014B01221A6070473C71034070B5044643
:102E9000FFF7E2FF201A00280CDD0849084A094E16
:102EA000094D00240C600123146030602B600B601E
:102EB000136070BDBDE8704000F0B2B800276E42EC
:102EC00000256E423071034004276E428368094A30
:102ED000026053B1084B1A68824201D106E01A46DB
:102EE00053688342FBD143685360704742681A605D
:102EF000704700BF68A10000B404FF1F83680C4A3C
:102F000010B50446026053B10A4B1A68904201D1D1
:102F10000AE01A4653689C42FBD16368536020461E
:102F200000F01CF9204610BD42681A60F7E700BFA8
:102F300068A10000B404FF1F054B027300228160EA
:102F40000360426019B1034B1A6842601860704711
:102F500068A10000B404FF1F0D4B70B51C68064645
:102F60000D4614B912E0646884B1A36831462A465C
:102F70001846002BF7D002F06CF90028F3D1A068B6
:102F800002F05FF9A842EED1204670BD002070BD6E
:102F9000B404FF1F007B704710B5074B044603F1D4
:102FA00008023433226040F8043FFFF78FFF2046C9
:102FB000FDF79EFD204610BD70A10000A0F10400A9
:102FC000FFF7EABF094B10B5044603F1080234339A
:102FD000226040F8043FFFF779FF2046FDF788FDA7
:102FE000204600F0BBF8204610BD00BF70A10000D5
:102FF000A0F10400FFF7E6BF10B5074B044600221E
:1030000040F8043BFFF798FF044B03F10802343308
:1030100084E80C00204610BD1892000070A100004A
:10302000014800F077B800BFC4A100000023C2220D
:10303000037043708370C370037143718371C371F4
:10304000037242728372C372704700BF2DE9F00FA2
:10305000274C4FF47A75A4FB016405FB02F2B2EB36
:10306000141F41D84FF00009224FC846CA464FF0FE
:10307000FF364FF0010B0BFA08FC002404E02E464B
:10308000C2460434C82C23D03D196D880CFB05F5CD
:10309000B1FBF5F5AA428CBFC5EB0205C2EB0505F5
:1030A000B542EED217F80490002DE8D1B8F1020F26
:1030B00000D0002503B11D6009F03F0949EA8818D6
:1030C0005FFA88F880F80180BDE8F00F00207047B3
:1030D00008F10108B8F1030F03D0002ECBD1D04680
:1030E000E7E7D0463546E5E70120BDE8F00F704739
:1030F000CDCCCCCCCCA1000000F1047302335B0139
:103100001A7D22B9837843F030038370704701221F
:103110001A72704738B50368DB68044698476368DD
:103120005B6883B122681D6853689847281A002895
:1031300062680CDC50681168836853600029F0D025
:1031400040688847EBE723689B68984738BD236849
:1031500052681B691068984738BD00BF00F004BC76
:1031600003460846194600F029B808B5062001F0C4
:10317000AFFF0120FDF734FE1FB505460848006883
:10318000C06812B9074C224600E0074C02928DE855
:1031900012001A4605492B4600F090FAFFF7E5FFAA
:1031A0000002FF1F5491000094A20000A1A20000A1
:1031B000014600200246034603F0BEB838B5054676
:1031C00004480C46134620B102202946224603F04B
:1031D000B3F838BD39630000014B1868704700BF71
:1031E0000002FF1F08B5074B044613B1002103F08E
:1031F000FFF8054B1868836A03B198472046FDF72E
:10320000EFFD00BFF163000034A3000070B5054678
:103210000C4609B9002070BD18B183690BB900F0E4
:1032200083F9204B9C4201D16C6808E01E4B9C4204
:1032300001D1AC6803E01D4B9C4208BFEC68B4F9B7
:103240000C30002BE6D02846214600F039F8236BDD
:10325000064633B12846216A98470028B8BF4FF088
:10326000FF36A3891B0603D52846216900F0A6FB7B
:10327000616B41B104F14403994202D0284600F049
:103280009DFB00236363A16C21B1284600F096FBEF
:103290000023A36400F0B2F90023A38100F0AFF98A
:1032A000304670BDD0A20000F0A2000010A30000C4
:1032B000024B01461868FFF7A9BF00BF0002FF1FBD
:1032C0008A892DE9F041054610070C4657D44B6812
:1032D000002B02DC0B6C002B18DDE66AB6B102F4A1
:1032E0008052002392B22F682B600AB1626D10E009
:1032F000216A28460123B047411C024609D12B68A8
:103300003BB11D2B01D0162B47D12F600020BDE80B
:10331000F081A3895B0705D56368D21A636B0BB193
:10332000236CD21AE66A216A00232846B047461C5D
:10333000A38905D12A681AB11D2A01D0162A19D1EC
:1033400000226260D9042269226004D5421C01D1A6
:103350002B6803B96065616B2F600029D6D004F13A
:103360004403994202D0284600F028FB0020606305
:10337000BDE8F08143F04003A381BDE8F0810F690F
:10338000002FC3D093070E6808BF4B690F6018BFAA
:103390000023C7EB06088B6012E0A38943F04003CB
:1033A000A3814FF0FF30BDE8F0812846216AA66A6C
:1033B0003A464346B0470028EFDD0744C0EB080813
:1033C000B8F1000FF1DCA1E738B50B6905460C46F2
:1033D000DBB118B183690BB900F0A6F80C4B9C4225
:1033E00001D16C6808E00B4B9C4201D1AC6803E052
:1033F000094B9C4208BFEC68B4F90C302BB128464D
:103400002146BDE83840FFF75BBF002038BD00BF54
:10341000D0A20000F0A2000010A30000014620B9D5
:10342000044B0549186800F005BA044B1868FFF70B
:10343000CBBF00BF34A30000C93300000002FF1F50
:1034400038B50C46054618B183690BB900F06CF825
:103450000E4B9C4201D16C6808E00D4B9C4201D19F
:10346000AC6803E00B4B9C4208BFEC686368013B0F
:10347000002B636005DA28462146BDE8384001F09C
:10348000D3BC23685A1C2260187838BDD0A2000033
:10349000F0A2000010A30000024B01461868FFF7DD
:1034A000CFBF00BF0002FF1F014900F0C3B900BF3A
:1034B000C9330000002310B50446036043608360F5
:1034C00081814366C28103614361836119465C3037
:1034D000082200F06BFA054B6362054BA362054BB3
:1034E000E362054B2462236310BD00BFA5510000B9
:1034F000CB510000035200002752000070B5682332
:103500004D1E5D430E4605F1740100F09BFA044622
:1035100040B1002180E842000C30A06005F1680253
:1035200000F044FA204670BD836910B5044633BBF1
:103530008364C3640365124B124A1B68826298421B
:1035400004BF0123836100F01FF86060204600F093
:103550001BF8A060204600F017F80421E06000226C
:103560006068FFF7A7FFA06809210122FFF7A2FF0B
:10357000E06812210222FFF79DFF0123A36110BD25
:1035800034A30000A9340000F8B51B4B1E68B369D2
:10359000074613B93046FFF7C7FF4836B46873686B
:1035A000013B04D4B4F90C5075B16834F8E73368C2
:1035B0002BB938460421FFF7A1FF306008B1366807
:1035C000ECE70C233B60F8BD4FF6FF73E38101236A
:1035D000A38165662560A560656025616561A5615B
:1035E00004F15C002946082200F0E0F96563A56358
:1035F000A564E5642046F8BD34A300007047704719
:1036000038B5074B074CE41AA4101D4624B1013C01
:1036100055F824309847F9E7BDE8384005F086BDF5
:103620004802FF1F4C02FF1FF7B50F46114601AAC3
:10363000054603F0A9FD064608B9002029E0284602
:10364000FFF7A2FF04460028F7D028463946019A22
:103650004FF4DB7301F02EFB002806DA0025FFF79C
:10366000CDFFA581FFF7CBFFE7E70B4B63620B4B69
:10367000A3620B4BE3620B4B2363F305E081A6814E
:10368000246205D5284621460022022300F028F8AE
:10369000204603B0F0BD00BFA5510000CB51000093
:1036A00003520000275200000A46034903460868F7
:1036B0001946FFF7B9BF00BF0002FF1F0EB403B5E4
:1036C000014603AB054853F8042B0068019300F052
:1036D00037FA02B05DF804EB03B070470002FF1F39
:1036E00000F000B82DE9F8430C4690461E4605460A
:1036F00018B183690BB9FFF717FF3D4B9C4201D10D
:103700006C6808E03B4B9C4201D1AC6803E03A4B4B
:103710009C4208BFEC68A38903F48473B3F5847FEB
:1037200003D128462146FFF74FFEE76A0FB91D2354
:103730002BE0012E04D0022E2BD056B3162324E00A
:1037400028462146FFF740FEA28902F4805292B239
:103750000AB1606D05E0216A28463346B847411C2E
:1037600014D0A3895A0706D56368C01A636B4BB19E
:10377000236CC01A06E01B0704D5236813B1226925
:103780009B1A18448044002603E02B604FF0FF3959
:103790002BE023691BB92846214600F08FF8284604
:1037A0002146FFF711FE81460028EFD12846216A05
:1037B00042463346B8470130E8D0616B41B104F16D
:1037C0004403994202D0284600F0F8F800236363CE
:1037D00023692360A389002123F402636160A3812C
:1037E00004F15C00082200F0E1F84846BDE8F883E7
:1037F000D0A20000F0A2000010A300002DE9F041CB
:10380000884600F1480400268CB1A5686768013F2E
:103810000BD4AB89012B06D9B5F90E30013302D098
:103820002846C04706436835F1E72468ECE7304690
:10383000BDE8F0812DE9F8438046894600F148044F
:10384000002694B1A5686768013F0CD4AB89012BB1
:1038500007D9B5F90E30013303D040462946C84791
:1038600006436835F0E72468EBE73046BDE8F883A7
:1038700070B50E4B0E4CE41AA41000251E46A5424E
:1038800004D056F8253098470135F8E705F048FC94
:10389000084C094BE41AA41000251E46A54204D08A
:1038A00056F8253098470135F8E770BD4002FF1FF4
:1038B0004002FF1F4802FF1F4002FF1FF0B58B8927
:1038C0009D0791B006460C4626D4B1F90E1000298A
:1038D00009DAA38913F0800F4FF0000514BF4027C9
:1038E0004FF480670DE001AA03F086FC0028F0DBAE
:1038F000029D05F47045A5F500514D424D414FF430
:1039000080673046394600F09DF860B9A3899A0572
:103910001DD443F00203A38104F147032360236114
:103920000123636113E00B4BB362A389206043F072
:103930008003A381206167614DB13046B4F90E1058
:1039400003F078FF18B1A38943F00103A38111B0FC
:10395000F0BD00BFA9340000024B0146186800F01A
:1039600071B800BF0002FF1F024B0146186800F04B
:1039700025B800BF0002FF1F10B5C9B20244904233
:10398000034606D01C788C4200F10100F7D118469E
:1039900010BD002010BD10B5431E0A44914204D052
:1039A00011F8014B03F8014FF8E710BD024403463C
:1039B000934202D003F8011BFAE7704730B50029A3
:1039C0003DD051F8042C0B1F1D49002AB8BF9B188D
:1039D0000A680C4612B95A600B6030BD93420DD292
:1039E00019685818904201BF5A5852181A60426814
:1039F0005A60236030BD994203D80A4651680029B5
:103A0000F9D1146815199D420AD11B682344D018B6
:103A10008842136013D10868034413604B680DE0BB
:103A200002D90C23036030BD1C681819884204BFFA
:103A300008684968596004BF00191860536030BDB8
:103A4000C404FF1F70B5CC1C24F0030408340C2CF4
:103A500038BF0C24002C064603DA0C233360002008
:103A600070BD8C42F9D3204A136810461946A1B1A3
:103A70000A68121B0ED40B2A03D90A608B188C50CB
:103A80001FE08B420DBF5A684A685A60026018BF37
:103A90000B4616E00B464968E9E7144D2B681BB945
:103AA000304601F017FA28603046214601F012FA3C
:103AB000421C0346D1D0C51C25F0030585420AD11E
:103AC0001C6003F10B001A1D20F00700821A0AD0B7
:103AD0005142995070BD3046E91A01F0FBF90130AE
:103AE000BBD02B46ECE770BDC404FF1FC004FF1F12
:103AF0009368013B002B10B5936009DA9469A342E7
:103B000002DBCBB20A2B03D1BDE8104002F042BB6E
:103B10001368581C10601970C8B210BDF8B506467D
:103B20000F461446D518AC4208D0304614F8011B95
:103B30003A46FFF7DDFF431CF5D100E00020F8BD59
:103B40002DE9F0439DB00D4690460393064618B10B
:103B500083690BB9FFF7E8FC754B9D4201D175688D
:103B600008E0744B9D4201D1B56803E0724B9D4261
:103B700008BFF568AB891C070AD52B6943B1002340
:103B8000099320238DF8293030238DF82A3041E025
:103B90003046294602F064FB0028F0D04FF0FF3099
:103BA000C2E0039A111D12680391002ABBBF524262
:103BB00043F0020307920792B8BF049301342378BD
:103BC0002E2B7BD0DFF88081217840460322FFF73F
:103BD000D3FE38B1049AC8EB00004023834013435E
:103BE00004930134217855488DF82810062204F1F9
:103BF0000108FFF7C1FE002800F08580504B002B24
:103C000078D1039B073323F0070308330393099B01
:103C10003B44099343461C4613F8012B1AB9B4EBF5
:103C200008090ED002E0252AF5D1F8E730462946EA
:103C300042464B46FFF772FF013070D0099B4B4460
:103C400009932378002B6AD000234FF0FF320493AE
:103C50000793059206938DF853301A9304F10108E7
:103C60004446DFF8E890217848460522FFF784FEB5
:103C700008F10108049B30B1C9EB00000122824029
:103C800013430493ECE7D80644BF20228DF8532059
:103C9000190744BF2B228DF8532022782A2A80D07E
:103CA000079923461C4601332278303A092A03D863
:103CB0000A2000FB0121F5E7079180E763782A2BB2
:103CC0000AD1039B1A1D1B680392002BB8BF4FF04B
:103CD000FF330234059375E7611C00220C46013165
:103CE0002378303B092B03D80A2000FB0232F5E78A
:103CF000059267E703AB0093304604A92A46114BAF
:103D000000F0C4F807E003AB0093304604A92A464C
:103D10000C4B00F077FB421C07467FF478AFAB8971
:103D20005B063FF53BAF09981DB0BDE8F08300BFCF
:103D3000D0A20000F0A2000010A3000042A30000E7
:103D40008D3E00001D3B00003EA3000038A3000094
:103D500030B51346044A05460C46106829462246EB
:103D6000BDE83040FFF7ECBE0002FF1F2DE9F04731
:103D700088B0002B149F1299109EDDF84CA01D46B0
:103D8000B8BF05F1004327F02007B6BF1D4600234A
:103D90002D231446B8BF1446462F0B7003D0452F71
:103DA00003D1013601E0032300E002238DE848043B
:103DB00006AB039307AB049322462B4602F020FC8C
:103DC000472F804602D1119BDB0726D5462F08EBF3
:103DD000060911D198F80030302B0AD12046294627
:103DE0000022002305F0C2F818B9C6F10106CAF88E
:103DF0000060DAF80030994420462946002200236A
:103E000005F0B4F808B1CDF81C90079B4B4504D2DF
:103E10005A1C079230221A70F7E7079B159AC8EBD5
:103E200003034046136008B0BDE8F08773B503464E
:103E30000029B8BF494203F8022BB4BF2D222B2220
:103E40000929427019DD0DF1070426460A2291FB6B
:103E5000F2F502FB15113031092D04F8011D294638
:103E6000F4DC3031651E04F8011CB5421A460AD252
:103E700015F8012B03F8012BF7E730241A462144EB
:103E800002F8024B5970101A02B070BD2DE9F04FC4
:103E900091B08B4615461E461A9F044603F0DAFC85
:103EA000D0F800A0504601F0CCF900230E933B68F7
:103EB0000990073323F0070303F108029BF81880E9
:103EC0003A60D3E90023CBE91223DBE9120100F0C9
:103ED000D7FF0128DBE9120119D10022002305F0E8
:103EE0004FF810B12D238BF84330A04BA04FB8F101
:103EF000470F88BF1F460323CBF81030DBF8003094
:103F000023F00403CBF800304FF00009A1E000F0EB
:103F1000B7FFDBF8003048B9964A974FB8F1470F22
:103F200088BF17460322CBF81020E9E7DBF804200E
:103F30009BED127B571C8DED0A7B01D1062209E017
:103F4000B8F1670F02D0B8F1470F05D1002A40F051
:103F5000C7810122CBF80420DBF80420CDF81080C3
:103F600043F480638DE80C00CBF800300DF133038F
:103F700002930DAB03930EAB0593002306932046EB
:103F8000DDE90A23FFF7F2FE08F0DF03472B0746BF
:103F90000AD10D9BD81C03DBDBF80420934237DDEC
:103FA000A8F102085FFA88F8B8F1650F0D9915D8E5
:103FB000013942460BF150000D91FFF737FF0E9A81
:103FC0008318012A8146CBF8103003DCDBF800208F
:103FD000D10738D50133CBF8103034E0B8F1660F93
:103FE00018D10029DBF8043009DDCBF810101BB91B
:103FF000DBF80020D20721D501330B441CE01BB9AC
:10400000DBF80020D00701D5023315E0012313E0CF
:104010004FF067080D9B0E9A934207DBDBF80020F8
:10402000CBF81030D10709D5013305E0002BD4BF00
:10403000C3F1020301231344CBF810300D9BCBF8DE
:1040400058304FF000099DF8333013B12D238BF811
:1040500043300096204659460FAA2B4600F05CF9E3
:10406000013002D14FF0FF3052E1DBF800305A0549
:1040700005D4204629463A46DBF8103008E1B8F16D
:10408000650F40F2D080DBE912010022002304F02A
:104090006DFF50B320462946384A0123B04701300E
:1040A000E0D00E9B0D9A9A4209DBDBF80030D8076E
:1040B00005D4DBF800309F0700F1108107E12046AE
:1040C00029465246099BB0470130CBD000270E9BB2
:1040D000013B9F42EDDA204629460BF11A020123EB
:1040E000B0470130BED00137F1E70D9B002B29DC32
:1040F00020462946214A0123B0470130B2D00D9B0A
:104100002BB90E9B1BB9DBF80030D907D1D520465F
:1041100029465246099BB0470130A3D04FF0000812
:104120000D9B5B4298452046294608DA0BF11A029E
:104130000123B047013095D008F10108F0E73A4675
:104140000E9BA5E0DBF858200E9B9A42A8BF1A46AA
:10415000002A914602DC4FF000081CE02046294668
:104160003A464B46B0470130F5D17BE74DA30000FE
:1041700049A3000055A3000051A30000A2A3000022
:10418000204629460BF11A020123B04701303FF4C3
:1041900069AF08F10108DBF85830B9F1000FACBF86
:1041A000C9EB03021A469045EADB07EB03080D9AB8
:1041B0000E9B9A4210DBDBF80030DA070CD40E9A23
:1041C0001744C8EB07030D9FD21B9342A8BF1346A9
:1041D000002B1F4608DC0EE0204629465246099B6C
:1041E000B0470130EBD13DE7204629464246B04773
:1041F00001303FF437AF4FF000080AE0204629466F
:104200000BF11A020123B04701303FF42BAF08F144
:1042100001080D9A0E9B002FA3EB0203A8BFDB1B26
:104220009845EBDB45E70E9A012A01DCDB0736D522
:10423000204629463A460123B04701303FF412AFE9
:10424000204629465246099BB04701303FF40AAF49
:10425000DBE912010022002304F088FEE8B90E9B7E
:10426000204629467A1C013B1DE0204629460BF1D9
:104270001A020123B04701303FF4F4AE01370E9B20
:10428000013B9F42F1DB204629460BF150024B4691
:10429000B04701307FF40DAFE4E60027EFE720469A
:1042A00029463A460123B0470130ECD1DAE62046F0
:1042B00029460BF119020123B04701303FF4D2AE79
:1042C0000137DBF80C300F9A9B1A9F42EFDBDBF8CB
:1042D0000C000F9B9842B8BF184619E00027F0E782
:1042E00043F480638DE80C00CBF800300DF133030C
:1042F00002930DAB03930EAB059300230693CDF809
:1043000010802046DDE90A23FFF730FD074640E62E
:1043100011B0BDE8F08F00BF2DE9F84391461F466C
:104320008A680B69DDF820809342B8BF1346C9F84C
:10433000003091F8432006460C4612B10133C9F80B
:1043400000302368990642BFD9F800300233C9F81B
:104350000030256815F006051CD094F8433022681B
:10436000003318BF012392061FD5E1185A1C3020D4
:1043700081F84300224494F8451082F84310023338
:1043800013E03046394604F119020123C0470130D9
:1043900007D00135E368D9F800209B1A9D42F0DB75
:1043A000DBE74FF0FF30BDE8F8833046394604F1D3
:1043B0004302C0470130F4D02268D9F80050E368C6
:1043C00002F00602042A08BF5D1B2269A3680CBF25
:1043D00025EAE57500259342C4BF9B1AED184FF0FE
:1043E0000009A9450ADA3046394604F11A020123C8
:1043F000C0470130D5D009F10109F2E70020BDE83E
:10440000F88300002DE9FF410C461746227E6E2AF4
:10441000984606460A9B01F1430100F0AF8012D88E
:10442000632A23D00AD8002A00F0BC80582A40F022
:10443000CB8084F84520DFF804E257E0642A1ED0E0
:10444000692A1CD0C0E0732A00F0B08009D86F2A16
:104450002ED0702A40F0B880226842F020022260FC
:104460003FE0752A24D0782A3BD0ADE01A68111DB0
:104470001960136884F8423004F14205A8E020680E
:104480001A6810F0800F02D0101D186008E010F0BC
:10449000400F02F10400186002D0B2F9003000E0D1
:1044A0001368002B3EDA2D225B4284F8432039E06A
:1044B00020681A6810F0800F02D0101D186007E005
:1044C00010F0400F02F10400186001D0138800E0E2
:1044D0001368227EDFF864E16F2A0CBF08220A22EB
:1044E0001CE07822DFF858E184F84520226818683B
:1044F00012F0800F00F104051D6003D1550601D5AF
:10450000038800E00368D00744BF42F02002226025
:104510001BB9226822F0200222601022002084F8B9
:10452000430002E0DFF814E10A226568A560002D6F
:10453000A2BF206820F00400206003B965B10D46D9
:10454000B3FBF2F002FB10331EF8033005F8013D17
:1045500003460028F4D100E00D46082A0BD1236859
:10456000DA0708D5236962689A42DEBF302305F86E
:10457000013C05F1FF35491B21612EE025681A68D1
:10458000606915F0800F03D0151D1D60136808E0E9
:1045900015F0400F02F104051D60136801D018806A
:1045A00000E01860002323610D4616E01A68111D13
:1045B00019601568626828460021FFF7DDF908B127
:1045C000401B6060636804E004F1420584F8422007
:1045D00001232361002384F84330CDF80080304666
:1045E000214603AA3B46FFF797FE013002D14FF068
:1045F000FF301FE0304639462A462369C047013064
:10460000F5D023689B0705D4E068039B9842B8BFA8
:1046100018460FE00025E368039A9B1A9D42F3DADF
:104620003046394604F119020123C0470130DED07B
:104630000135F0E704B0BDE8F08100BF59A30000E8
:104640006AA300002DE9F04F99468B6815465A1E63
:10465000B2F5AE7F81BF6FF4AE7203EB020C40F295
:104660005D138B600B680F4643F4F06387B047F827
:104670001C3B4FF0000B06460C4698BF4FF0000C59
:10468000B8465A46CDF80CB0CDF808B0DA46CDF8A9
:1046900004B0A168002900F0EC802B681B78492B3E
:1046A00070D016D8392B0DD8312B40D22D2B46D0B7
:1046B00002D82B2B43D0DCE02E2B00F09280302B45
:1046C00023D0D6E0452B00F09580462B77D0412BA8
:1046D0000CE0652B00F08E800AD8542B75D002D8E0
:1046E0004E2B34D0C5E0592B75D0612B46D0C0E09D
:1046F0006E2B2CD004D8662B61D0692B42D0B8E049
:10470000742B62D0792B66D0B3E0206810F4807FE0
:104710000DD020F0800020600AF1010ABCF1000FEA
:1047200000F08A8001310CF1FF3CA16084E012EBC3
:104730000B0F40F09E80216821F4C07105E02168D4
:10474000080640F1968021F08001216070E06AB98E
:10475000BAF1000F0CD1216801F4E060B0F5E06F10
:1047600006D121F4F0612160012261E0022A5ED0CD
:10477000BBF1010F1ED0BBF1040F1AE0012A78D162
:10478000022255E0BBF1000F0ED1BAF1000F73D138
:10479000216801F4E060B0F5E06F71D121F4F061BF
:1047A00021604FF0010B43E0BBF1030F02D0BBF1DE
:1047B000050F5ED10BF1010B5FFA8BFB38E0BBF10B
:1047C000020F56D14FF0030B32E0BBF1060F50D170
:1047D0004FF0070B2CE0BBF1070F4AD14FF0080B4D
:1047E00026E02168880544D521F420712160CDF8A8
:1047F00004A01DE0216801F4A060B0F5806F04D032
:10480000480536D5BAF1000F3AD088055CBF01984B
:10481000CDF80C8021F4F06158BFC0EB0A0041F4E0
:10482000C07158BF029021604FF0000A00E00322DF
:1048300088F8003008F10108A368013BA3602369F0
:10484000013323616B68013B002B6B6003DD2B6838
:1048500001332B601DE7D4F880310592304629469C
:10486000CDF810C09847DDF810C0059A00283FF435
:1048700010AFBAF1000F03D0236823F480732360D4
:10488000013A012A0ED8B8450AD9D4F87C3118F873
:10489000011D30462A4698472369013B2361F2E710
:1048A0000125AEE00BF1FF33062B22D8BBF1020F3E
:1048B00012D9ABF1030B5FFA8BFBCBEB080BD8459E
:1048C00017D0D4F87C3118F8011D30462A46984795
:1048D0002369013B2361F2E7B845E1D9D4F87C3183
:1048E00018F8011D30462A4698472369013B236189
:1048F000F2E72368DA052CD55B050CD5B845CFD98E
:10490000D4F87C3118F8011D30462A4698472369AF
:10491000013B2361F2E718F8011C2369652903F1C3
:10492000FF3308F1FF3B23610DD045290BD0D4F8AC
:104930007C3130462A469847236918F8021C013B0F
:10494000A8F1020B2361D4F87C3130462A469847FF
:10495000D846256815F0100552D188F80050236814
:1049600003F4C063B3F5806F05D1019BC3EB0A0369
:104970005A426BB916E0029BA3B1039B2A46591C0D
:1049800030460A2301F0C8FA029BDDF80C80C21AF7
:1049900004F26F13984528BF04F5B77840461B49C9
:1049A00000F0B2FB30463946002200F0A1FC22683C
:1049B000D9F8003012F0020F06460F4603D01A1D38
:1049C000C9F8002006E012F0040F03F10402C9F850
:1049D000002003D01B68C3E900670DE0D3F8008016
:1049E00000F04EFA10B900F047FB03E030463946BC
:1049F00004F036FBC8F80000E3680133E36000E030
:104A00000025284607B0BDE8F08F00BF7BA300005B
:104A10002DE9F04115468A6880460C4632B98A690C
:104A2000002A0CBF01224FF0FF328A602268D106B3
:104A30005FBF1A68111D196017680026A06900BBC6
:104A40002368DA065EBF2B681B783B702A686B68A8
:104A500002F101022A60A26803F1FF3302F1FF3282
:104A60006B6006F1010658BF0137A260EAB1002B66
:104A7000E4DCD4F880314046294698470028DDD050
:104A800013E0012807D12B6862691B78D35C002BE7
:104A9000D6D1C6B109E0022807D12B680B4A1B7892
:104AA000126813445B781B07CAD5236813F0100300
:104AB00005D1E2680132E260A26902B13B7023696C
:104AC0001E4426610020BDE8F08100BF0402FF1FE4
:104AD0002DE9F04F9A46734B0C468346164693E8F1
:104AE000070087B003AB83E807006F4BA1696F4AEB
:104AF000032918BF1A46A36800925A1EB2F5AE7F6A
:104B000081BF6FF4AE7503EB050840F25D13A3603F
:104B1000236804F11C0943F45063236098BF4FF0ED
:104B200000084F4600233268019303A951F823007F
:104B300011780222FEF720FF019B002836D0012BBE
:104B40000BD162682AB908226260226842F40072BE
:104B50002260226822F4A0620BE0022B0AD12268B4
:104B600002F4C061B1F5007F20D11021616042F4F0
:104B700080722260A268511EA160BAB13268511CD5
:104B8000316012783A707268013A002A07F1010523
:104B900072600ADCD4F88021019358463146904770
:104BA000002840D12F46019B00E02F460133032B04
:104BB000B9D163680BB90A23636063683C496069D3
:104BC000C91A00F097F93D460027A36863B331681E
:104BD00060690A78805C38B3302A22680AD11005EF
:104BE00008D50137B8F1000F0AD0013308F1FF38BA
:104BF000A36005E022F4106222600B782B7001356F
:104C00007368013B002B736003DD3368013333604D
:104C100005E0D4F8803158463146984720B9A3685A
:104C2000013BA360D1E700272368D9050DD54D4589
:104C300009D915F8011CD4F87C31584632469847FA
:104C400005F1FF3845464D4527D0226812F0100285
:104C50001BD12A706368009E58464946B0472268B7
:104C6000DAF8003012F0200F07D1D20705D51A1D4F
:104C7000CAF800201B68188004E01A1DCAF800203A
:104C80001B681860E3680133E360C9EB05053D4428
:104C900027693D442561002000E0012007B0BDE800
:104CA000F08F00BF80A3000025600000195F0000A6
:104CB0009CA3000038B5074C05460020206008463C
:104CC00011461A46FBF74EFF431C02D1236803B17D
:104CD0002B6038BD5C05FF1F0FB40A4B13B51C6871
:104CE00024B1A36913B92046FEF71EFC05AB20468C
:104CF000A168049A0193FEF723FF02B0BDE81040BB
:104D000004B070470002FF1F838903F00903092BD9
:104D100001D1FEF783BB002070470000F8B50C46B8
:104D2000054618B183690BB9FEF7FEFB394B9C426F
:104D300001D16C6808E0384B9C4201D1AC6803E0BB
:104D4000364B9C4208BFEC68A2890023636093B293
:104D50009E065AD458071AD4D90605D4092342F01E
:104D600040022B60A28150E01A070BD5284621464D
:104D7000FEF72AFB002848D1A389A06023F008038E
:104D8000A381A061A38943F00403A38110E0616BB8
:104D900071B104F14403994202D02846FEF70EFE99
:104DA000236C63600020606313B1E36B2360F8BD84
:104DB00023691BB928462146FEF780FDA789BEB2AC
:104DC000B3070FD00123A381154B1649186806F0CD
:104DD0000906FEF713FD092EA78103D128462146B7
:104DE000FEF76EFA22692260666A216A63692846C4
:104DF000B047002860600BDCA38917BF002243F096
:104E0000200343F040036260A3814FF0FF30F8BD00
:104E10000020F8BDD0A20000F0A2000010A3000006
:104E200034A30000094D000038B50C46054618B102
:104E300083690BB9FEF778FB0E4B9C4201D16C687D
:104E400008E00D4B9C4201D1AC6803E00B4B9C4247
:104E500008BFEC6828462146FFF760FF38B9636851
:104E6000013B636023685A1C2260187838BD4FF0FC
:104E7000FF3038BDD0A20000F0A2000010A3000057
:104E80000A4631F0004110B503461BD00F48A2F589
:104E90008014844210D902F1FF420C4802F5E0026E
:104EA000824209D9B1F5801F08D3094A914207D13E
:104EB000B3FA83F0400910BD042010BD032010BDDB
:104EC000002010BD0028E6D1022010BDFFFFDF7FCB
:104ED0000000F07F38B5064C0023054608462360E5
:104EE000FBF76AFF431C02D1236803B12B6038BD76
:104EF0005C05FF1FF0B50A785E2A13BF4B1C8B1CA4
:104F00004A78002108BF0121441E00F1FF0504F882
:104F1000011FAC42FBD10AB9581EF0BDC1F101041A
:104F2000E7B2875419782D2903F1010605D05D29D0
:104F30000ED079B10A463346F2E75D785D2DF9D09F
:104F40009542F7DB02330132AA428754FBDBE9E7E3
:104F50003046F0BD1846F0BD00290CBF02220022E9
:104F60004FF4806300F000B82DE9F0411D463D4B41
:104F70001E6804460F46904626B1B36913B9304601
:104F8000FEF7D2FA384B9C4201D1746808E0374BE7
:104F90009C4201D1B46803E0354B9C4208BFF468E1
:104FA000B8F1020F5AD8002D58DB30462146FEF7E3
:104FB0000BFA00236360A361A3891B0603D5304667
:104FC0002169FEF7FBFCA389B8F1020F23F08303EC
:104FD000A38112D037BB002D08BF4FF4806528464F
:104FE000FEF7BAFC0746C8B94FF48060FEF7B4FC80
:104FF000074688B94FF0FF3000E00020A38943F056
:105000000203A3810023A36004F14703236023610B
:1050100001236361BDE8F0814FF48065A38943F00B
:105020008003A381B8F1010F01BFA38943F00103FD
:10503000A3816B4208BFA3610E4BB362A3892760B3
:1050400003F0080080B22761656148B113F0030FD7
:1050500018BF0025A5600020BDE8F0814FF0FF30AB
:10506000BDE8F0810002FF1FD0A20000F0A2000006
:1050700010A30000A9340000004870470000C07F62
:105080001F2938B504460D4604D9162303604FF096
:10509000FF3038BD426C12B152F821304BB9204676
:1050A00000F030F82A4601462046BDE8384000F0BE
:1050B00017B8012B0AD0591C03D116230360012015
:1050C00038BD002442F8254028469847002038BDC6
:1050D000024B01461868FFF7D3BF00BF0002FF1F55
:1050E00038B5074C0023054608461146236004F0F6
:1050F0000FF8431C02D1236803B12B6038BD00BFF9
:105100005C05FF1F03F0FCBF0EB400B59CB04FF46C
:105110000271ADF814106FF00041049107914FF641
:10512000FF711DABADF81610084953F8042B02901F
:1051300006900868019302A903F042F8029B00223E
:105140001A701CB05DF804EB03B070470002FF1F3B
:105150000EB430B59CB01FAC4FF4017254F8045B30
:10516000ADF814200290069000F06BF80B4B0B93F7
:1051700000230F9314934FF6FF73ADF81630084BCE
:105180000390079002A9186801942A46234603F069
:1051900063F91CB0BDE8304003B07047C751000050
:1051A0000002FF1F10B50C46B1F90E1003F0A2FA71
:1051B0000028ABBF636DA3891B1823F48053ACBFD9
:1051C0006365A38110BD002070472DE9F0411D46A5
:1051D0008B89DB0507460C46164605D5B1F90E103E
:1051E0000022022302F03AFBA389B4F90E1023F443
:1051F0008053A381384632462B46BDE8F04101F08A
:105200001DB810B50C46B1F90E1002F027FB431C77
:10521000A38915BF606523F4805343F48053A381B1
:1052200018BFA38110BDB1F90E1001F04BB910F8F1
:10523000012B11F8013B012A28BF9A42F7D0D01A5E
:105240007047034613F8012B002AFBD1181A0138C6
:10525000704770B5AAB1451E01396B7811F8014F3E
:10526000A34205F1010606D16FF00104641B14444A
:10527000E04202D11C46181B70BD3546002BECD114
:10528000F8E7104670BD30B5036811F8014B0133E3
:105290004CB11A78A2F14105192D98BF2032A242D3
:1052A000F3D0002030BD0360012030BD2DE9F04176
:1052B0000F46904602F0CCFD04460D46B8F1000FB3
:1052C00011D0C7F30A53C3F16B03002B0BDD1B0591
:1052D00003F17F55002405F5401522462B4603F0C7
:1052E000DDFBBDE8F08120462946BDE8F0810000E5
:1052F0002DE9F04F9FB0002383468A4616921A93F9
:105300004FF000084FF000091991199B1A780D2AE7
:1053100005D8092A13D2002A00F0BE8112E02B2AF8
:1053200006D02D2A02D0202A0CD108E0012200E06C
:10533000002209925A1C19925B782BB9ACE1013317
:105340001993E2E700230993199C2378302B5CD151
:105350006378582B01D0782B4CD11AAB0093099B62
:105360000193584619A9B14A1BAB01F0A2FF10F0F6
:105370000706054600F09B85062E05D10134002363
:105380001994099300F093BD1A9A3AB11CA83521DB
:1053900002F04CFE58461A9902F0C2FA1B9A062EE9
:1053A00021D8DFE806F0040D08171C0D04004FF0AB
:1053B0000009C84617E0DDF87080DDF8749012E04F
:1053C0001D9BDDF8708002F2334223F4801343EA20
:1053D000025908E0DFF858924FF0000803E06FF040
:1053E00000494FF0FF38290740F1618549F0004935
:1053F00000F05DBD199B5A1C19925B78302BF9D0D7
:10540000002B00F05485012300E0002300260493C4
:10541000199B059303963546199C2778A7F130030D
:10542000DAB2092A10D8082DD8BF03994FF00A0222
:10543000D8BF02FB013304F10104D4BF039302FB84
:10544000063601351994E7E7584602F003FA016879
:105450000291584602F0FEF90068FFF7F2FE029949
:1054600002462046FFF7F5FE28B100203B462C46B9
:10547000029007465DE00290584602F0EBF90068A2
:10548000FFF7DFFE199B02991A1819921B5C002D79
:1054900047D12846302B05D1199B5A1C199201304F
:1054A0005B78F7E7A3F13102082A48D8199A0290ED
:1054B000002005920446303B00F101012BD0029AF6
:1054C0000A44029207192146B94213D0013101F171
:1054D000FF3EBEF1080F06DC039A4FF00A0E0EFBEA
:1054E00002F20392F0E71029DCBF4FF00A0E0EFB28
:1054F00006F6E9E72044082800F1010405DC039AD8
:105500000A2101FB0233039304E0102CDCBF0A21C3
:1055100001FB06360021199B581C19905B78084640
:1055200002E02C4608460291A3F130010929C2D9B4
:105530000127652B01D0452B60D174B905E0652B9F
:1055400040F0C38400230293012728B9049B002B59
:1055500000F0A280044600E00024DDF864A00AF117
:10556000010319939AF801302B2B07D02D2B02D071
:105570004FF0000C09E04FF0010C01E04FF0000C7F
:105580000AF1020319939AF80230A3F130010929B4
:1055900032D81946302904D1199B591C19915978D0
:1055A000F8E7A1F1310EBEF1080F0B4626D8199B82
:1055B00006933039199B03F1010ECDF864E05B7856
:1055C000A3F13002092A05D84FF00A0E0EFB013173
:1055D0003039EFE7069AC2EB0E0EBEF1080F44F623
:1055E0001F6E03DC7145A8BF714600E07146BCF137
:1055F000000F04D0494202E0CDF864A00021002C45
:1056000054D1002840F05384049A002A40F04F847B
:10561000002F41D14E2B20D002DC492B0AD03BE099
:10562000692B07D06E2B18D036E000BFE8A300002E
:105630000000F07F19A8A649FFF725FE60B3199B6B
:10564000A449013B19A81993FFF71DFE10B9199B36
:1056500001331993DFF894921AE019A89E49FFF7D5
:1056600012FEC8B1199B1B78282B0FD119A89B4992
:105670001CAA02F055F8052808D11D9BDDF87080A2
:1056800043F0FF4949F4E00900F011BCDFF86092F3
:105690004FF0000800F00BBC169BCDF864A0002B67
:1056A00000F010840023099300F003BC029B0398D0
:1056B000CB1A002D14BFAA46A246102C25460493EF
:1056C000A8BF102503F074F9092D8046894613DD23
:1056D000834B03EBC50353E9122303F0DFF9804644
:1056E0003046894603F064F902460B464046494677
:1056F00003F022F8804689460F2C37DC049B002BF0
:1057000000F0D58324DD162B07DC754A02EBC302BB
:10571000D2E900014B46424615E0049AC4F1250344
:105720009A4223DC6E4DC4F10F0405EBC403D3E9A8
:10573000000142464B4603F0B1F9049B1C1B05EBEC
:10574000C405D5E9002303F0A9F980468946AEE3F4
:10575000049B13F1160F09DB614AA2EBC30240461A
:105760004946D2E9002303F0C3FAEEE7049B651B28
:105770001D44002D54DD15F00F020AD0584B03EBE9
:10578000C203D3E9000142464B4603F087F9804645
:10579000894635F00F0500F0B180B5F59A7F0BDD35
:1057A0000024A246059403942223CBF80030DFF8AE
:1057B0003C914FF0000880E14946DFF838912D1107
:1057C000404600274E46012D0ADDEA0703D5D9E9F8
:1057D000002303F063F901376D1009F10809F2E7BE
:1057E0008046A1F1547906EBC70642464B46D6E9FE
:1057F000000103F053F921F0004389460A461B0DCE
:1058000038491B058B428046CAD8A1F580118B42CE
:1058100086BFDFF8E4904FF0FF3802F154796DE075
:105820006CD06D4215F00F020AD02D4B03EBC20372
:1058300040464946D3E9002303F05AFA8046894698
:105840002D115BD01F2D04DD0024A2460594039486
:105850002CE115F0100F0CBF00236A23224E029397
:1058600040464946002D08DDEB0703D5D6E9002365
:1058700003F014F96D100836F4E7029B8046894660
:10588000EBB1C1F30A53C3F16B03002B0A4616DDDB
:105890001F2B0EDD342BDEBF203B4FF0FF3101FA12
:1058A00003F34FF00008CCBF4FF05C7903EA020924
:1058B00005E04FF0FF3202FA03F303EA0008404626
:1058C00049460022002303F051FB0028BCD117E019
:1058D0004EA3000000A5000056A30000A8A30000EE
:1058E00018A500000000A07CC0A300000000F07F0D
:1058F0000000F8FFE0A50000FFFFEF7F0023029308
:10590000039B0093584605995246234602F05DF8E2
:10591000059000283FF444AF049A049B002AC3F189
:1059200000034FF00004A8BF00231293A246059B7A
:105930005846596801F0BFFF039000283FF434AF88
:10594000059B1A69059B023203F10C0192000C3091
:10595000FEF721F81BAB00931CAB0193584642465F
:105960004B46CDE90A8902F0E6FA1A9000283FF486
:105970001BAF5846012102F0B5F8824600283FF4DB
:1059800013AF049B02991C9D23EAE37308931B9BAE
:10599000002BADBF129A089A129ED618B8BFD21A21
:1059A000A3EB01032B446FF47F71A8BF089A8B42CD
:1059B000C5F1360580F28680C91A1F29A5EB0105BD
:1059C000C8BFB3494FF00100D5BF00FA01F3C91AAF
:1059D000139300FA01F3D9BF0023069306931390A3
:1059E0007719029BB74215441D443B46A8BF334676
:1059F000AB42A8BF2B46002BC2BFFF1AED1AF61A06
:105A0000129B002B63D1002F7ADC089B002B40F007
:105A10008180002D00F38880002E00F38F8058468F
:105A20001A99039A02F0B5F9044600283FF4BCAE77
:105A3000C36808930023C360514602F08EF9002822
:105A400080F28A80089B002B40F00A82B8F1000F98
:105A500040F00682C9F31303002B40F0018229F0C5
:105A600000431B0D1B05B3F1D66F40F2F98163694A
:105A7000002B6DD021460122584602F01BF95146F9
:105A8000044602F06AF9002840F3EA8129F0004355
:105A9000029A1B0D1B05002A00F08D80B3F1D66F12
:105AA00000F38980B3F15C7F00F3DC8122234FF0A7
:105AB00000084FF00009CBF80030059B002B40F0A8
:105AC000E281F4E1002306930123139388E7514612
:105AD00058461A4602F0A0F8824600283FF464AE09
:105AE000584651461A9A02F006F8179000283FF4DB
:105AF0005BAE58461A9901F013FF179B1A9382E781
:105B000058461A993A4602F0D5F81A9000287FF4C0
:105B10007CAF49E658460399089A02F07DF8039055
:105B200000287FF476AF3FE6584603992A4602F0F4
:105B3000C1F8039000287FF46FAF35E65146584610
:105B4000324602F0B7F8824600287FF468AF2BE6B1
:105B50002369012B8EDC83E162D1089AC9F3130318
:105B600022B34C498B424A462ED1029B414663B137
:105B7000494B1340B3F1D46F07D81B0DC3F16B032E
:105B80004FF0FF3000FA03F301E04FF0FF3399428A
:105B90001AD1424B9A4202D101313FF405AE3E4B3D
:105BA000134003F580194FF0000859E163B9B8F1CB
:105BB000000F09D16AE7A3F580136FEA13596FEA62
:105BC00009594FF0FF384BE1069B13B113EA090F57
:105BD00002E0139B13EA080F00F04281089B029A2F
:105BE0004046494653B1FFF761FB02460B46DDE9EB
:105BF0000A0102F0A1FD8046894631E1FFF756FB1C
:105C000002460B46DDE90A0102F094FD0022002362
:105C10008046894603F0AAF900287FF447AF1FE1C8
:105C20002046514602F0D9F900224FF08043064643
:105C30000F4603F0AFF9002841D0089B13B10022B2
:105C4000174B0FE0B8F1000F03D1C9F313033BB9B1
:105C50000DE0B8F1010F03D1B9F1000F3FF426AF09
:105C6000104B0022CDE9062300260D4F3CE03046C4
:105C7000394600220A4B03F083F9B8B93046394659
:105C80000022094B02F00AFF06460F4610E000BF53
:105C9000E3FBFFFFFFFF0F000000F07FFFFFEF7F40
:105CA0000000F03F0000F0BF0000E03F944F0026EE
:105CB00007F1004314961593DDE9142312E03046F2
:105CC00039468F4B002202F0E9FE089B06460F463C
:105CD00023B901F100430E900F9301E0CDE90E6767
:105CE000DDE90E23CDE9062329F000452D0D854B76
